:020000040800F2
:1000000048370020550100087B0100087D010008E9
:1000100000000000000000000000000000000000E0
:100020000000000000000000000000007F01000848
:1000300000000000000000000B0100083D860008E1
:100040008501000885010008850100088501000878
:100050008501000885010008850100088D0C000855
:100060000000000085010008C1090008FD09000822
:100070008501000885010008850100088501000848
:100080008501000800000000000000008501000854
:1000900000000000850100088501000885010008B6
:1000A000000000008501000885010008CD860008D9
:1000B0008501000800000000850100088501000896
:1000C0000348854600F0F0F80048004745940008D2
:1000D00048370020084B19680868203080F30988E9
:1000E000022080F31488BFF36F8F3FBCAE4608BC7C
:1000F00004BC62B6184700003C000020EFF31080FB
:1001000072B6704780F310887047EFF309800E4B8A
:100110001A6820381060F0C044464D4656465F4687
:10012000F0C008B572B60AF069FD62B60CBC116881
:1001300008681030F0C8A046A946B246BB4680F316
:1001400009882038F0C818473C0000200138FDD14C
:10015000704700000C4880F308880C480168090EBD
:100160000B4A914205D10B480B4901600B480C49E1
:1001700001600C4880470C480047FEE7FEE7FEE7B9
:10018000FEE7FEE7FEE7000048370020040000001D
:100190001F00000018100240010000000000014094
:1001A0000000000061860008C100000830B50B4661
:1001B000014600202022012409E00D46D5409D4241
:1001C00005D31D469540491B2546954040191546C7
:1001D000521E002DF1DC30BD70B5002425460028EC
:1001E00001DA01244042002901DA01254942FFF7E2
:1001F000DDFFAC4200D04042002C00D0494270BD2F
:1002000003460B439B0703D009E008C9121F08C02F
:10021000042AFAD203E00B780370401C491C521EDA
:10022000F9D27047D2B201E00270401C491EFBD2E5
:1002300070470022F6E710B513460A4604461946F1
:10024000FFF7F0FF204610BDF0B51FB406460020B2
:1002500082B005464024019100901BE0019922469E
:100260000F46304600F042F8049A059B801A9941E7
:1002700010D310461946224600F028F8361A8F414E
:100280000197224601200021009F00F01FF8381836
:100290004D4100902046641E0028DFDC019B009841
:1002A0002946324607B0F0BD064C0125064E05E052
:1002B000E36807CC2B430C3C98471034B442F7D387
:1002C000FFF702FF48C2000868C2000810B5202AE4
:1002D00004DB0146203A9140002010BD91402023CC
:1002E0009C1A0346E3401943904010BD10B5202AE4
:1002F00004DB0846203AD040002110BD0B46D34015
:10030000D0402024A21A91400843194610BD70B570
:100310008C180578401C6B075B0F01D10378401CDB
:100320002A1106D10278401C03E006780E70401CAA
:10033000491C5B1EF9D12B0705D40023521E0DD496
:100340000B70491CFAE70378401CCB1A921C03E09F
:100350001D780D70491C5B1C521EF9D5A142D8D3E3
:10036000002070BDFFB581B001980A9C1D4617465C
:100370000E46002808D104F0B1FA002804D017482E
:100380000078002825D102E0052005B0F0BD3878BE
:10039000C00720D0124A1B201071E01C10700020F2
:1003A000507004219170D0707078507130789071D5
:1003B000002004E0295C1318401CD971C0B2A0428F
:1003C000F8D3E41DE2B20649019809F0EBFF0028DA
:1003D000DBD00120D9E70820D7E700008D040020FA
:1003E000343100207047704770477047704770B5D0
:1003F00006460C461546294620460AF045FA70BDC9
:100400001CB5002001210346052212020091019033
:1004100003A105480AF0B0FE04A008F0F1FA1CBDE3
:100420005461736B31000000B5A100085441534B77
:100430002049532052454144590D0A00FFB583B06D
:100440000C46029400200190002726E000261CE0C4
:10045000721C039951430846791CFFF7A7FE054615
:10046000A54201D9281B00E0601B05460298A8425E
:1004700004D902950598067006980770029800281E
:1004800002D10120019002E0761C402EE0D300BF93
:100490000198002800D002E07F1C042FD6D300BFB3
:1004A000029807B0F0BD000008B501210320400408
:1004B00006F096FC684600F02FFD0121C90368464E
:1004C0000180012181701021C17069460920C00698
:1004D00000F0B4FC0121C9030920C00600F018FD9A
:1004E000684600F019FD38216846018001218170BD
:1004F0001021C1706946044800F0A0FC3821024870
:1005000000F006FD08BD00000004004800B587B0FB
:10051000134A07CA04AB07C3114A0C3207CA01AB1E
:1005200007C300210F4807F009FB0E4807F048FCFD
:1005300001210C4807F0E2FA00210A4807F0DEFA30
:1005400000231A4604A9084807F004FD00231A46B0
:1005500001A90548143007F0FDFC07B000BD0000FC
:1005600028B60008003800404400024010B5024898
:1005700009F088FF10BD00000106000838B51848D2
:100580000078002805D100F0CFF901201449087047
:1005900025E013480078012821D01148007802286E
:1005A0001DD110480078012819D1002400200D49E0
:1005B000087000BF04E00C48005D0C490855641C3D
:1005C0000B4800788442F6DB09480078074B094A5B
:1005D0000949009009480078FFF7C4FE00BF38BD04
:1005E0001500002017000020A8040020C4210020CE
:1005F00016000020C400002022B8000814000020CB
:10060000FEB506460C46330008F00AFA12670A12D5
:10061000136767352B41495152585E6767656667B6
:100620002F480078012802D12EA008F0E9F955E002
:1006300054E0254668782F49087002202849087040
:1006400029782DA008F0DCF929796A79A879019236
:1006500002910090EB792A7A697A2BA008F0D0F900
:100660003CE0254600201E4908706A78297831A0B0
:1006700008F0C6F932E02546E888A9880091019083
:100680006B886A782978344808F0BAF926E025465C
:10069000AB781A46297831A008F0B2F91EE0254659
:1006A0006B781A46297836A008F0AAF916E015E00A
:1006B00020464178012900D000BF0FE02546287868
:1006C000354909F0CCFE09E025466A78297833A03F
:1006D00008F096F902E001E000E000BF00BFFEBDB7
:1006E000150000204164766572746973696E672E27
:1006F0002E2E0A00140000205374617475733A3072
:1007000078253032780A0000436F6E6E6563746539
:100710006420746F20253032783A253032783A25BB
:100720003032783A253032783A253032783A2530EE
:1007300032780A00446973636F6E6E656374656432
:100740002C2049443A25642C20526561736F6E3A1F
:10075000307825580A000000FCC100085354415469
:1007600055533A2025642C205458205048593A209B
:1007700025642C205258205048593A2025640A00FC
:1007800049443A25642C2054583A25642C20525868
:100790003A25640A00000000F1FB09004155544865
:1007A000205265706F72742C2049443A2564202CC5
:1007B000205354415455533A25640A00014A526863
:1007C0001047000000040020014800687047000046
:1007D000DC03002010B50C484468002C13D00168DD
:1007E0008C4203D100214160016001E02168416039
:1007F0002079064950380006800D09582046884760
:10080000204600F0E3FA10BDC003002028BF000816
:10081000F8B500F0B5F804460125030008F000F92A
:100820000504070A160D150004F0B0FB0EE001F0F8
:1008300021FB0BE001F058FA08E000F0B1F80028C5
:1008400004D1204600F0E8FB00E0092519480168C2
:10085000491C016008F03AFB00F0A2F8012827D1FA
:10086000154CE07E04F03AF801281FD121460125FD
:10087000FB22E039114801F0C0FA2646E03EB1788B
:100880000F4A89005158E07E8847002810D1B0787F
:1008900005280BD13079132808D1E07E317A000287
:1008A0000843694608800520FFF788FF06F036FFF9
:1008B0002846F8BD540300201531002034310020B3
:1008C000D0C1000810B572B608F0E4FC08F0CEFC08
:1008D00008F0FAFC00211920800106F089FD01F0E2
:1008E00015FA08F003FD08F0FBFC06F07FFB06F0AC
:1008F000BBFE62B60024FF21204608F0B3FB641C57
:100900002406240EF7D010BD1FB5002168460170E3
:10091000A0214180818007214173002181736846B5
:100920000FC809F087FC1FBD10B5FFF7EDFF0C21C4
:10093000044809F047FC0D21034809F0AFFD09F018
:100940005DFC10BDFCB5000808B600080A490A782D
:100950000A49012A097803D95200921E511889B216
:100960000F2907D329220F39514389B2814201D37C
:10097000002070470120704723030020140300204B
:100980000649002072B6C20052185268002A04D1EB
:1009900062B6401CC0B20528F4D37047D02C0020AA
:1009A0000348C07EFF2801D0012070470020704717
:1009B0001531002001480078704700000B0300202B
:1009C00010B5202000F0A4F8002805D00120094926
:1009D0000870202000F036F80120400200F098F85E
:1009E000002805D0012004490870400200F02AF8D0
:1009F00010BD0000190000201800002010B50120D3
:100A0000400300F085F8002805D00120084908704F
:100A1000400300F017F80120400400F079F80028A6
:100A200005D0012003490870400400F00BF810BD08
:100A3000190000201800002001494860704700009C
:100A40000000024001494860704700000000024079
:100A50000268520852000A4302607047F0B589B03C
:100A600007460C4615461E460121084606F0B8F911
:100A7000384600F025F801A800F086F801940295A8
:100A8000002168460173049601758021417500219B
:100A9000C18201832021817600218183C18301A944
:100AA000384600F04BF801220221044807F05AFEB4
:100AB00001213846FFF7CCFF09B0F0BD00380140F6
:100AC00010B50446206840084000206000202060E7
:100AD0006060A060E060E1B2084608380521FFF7D9
:100AE00065FB01460F2088400249496808430149D7
:100AF000486010BD0000024010B5044601212046A8
:100B0000FFF7A6FF10BD0146486880B2704700009D
:100B10000146044800680840002801D001207047C1
:100B20000020FCE700000240002A03D003680B43CA
:100B3000036002E003688B430360704710B50A7AD4
:100B40008B7D1A430B7C1A434B7C1A434B8A1A4306
:100B50008B8A1A430B8B1A434B8B1A430368094C3D
:100B600023401A43026002680123DB039A438B8B04
:100B70001A430260CA6842600A6882604A68C260BA
:100B800010BD00000F80FFFF002101604160017275
:100B9000C160017441744182818281750183418306
:100BA00081837047F8B5057A8821364A694306463D
:100BB0008C18C17A14300C36009003292AD00429ED
:100BC00027D13148AF00C559042228461E3000996C
:100BD00001F047F929461A31204608225830009181
:100BE00001F03FF908223146009801F03AF9294610
:100BF00028461231223009F083FCB02028712248A7
:100C00000021C151284607F0B9FC2046603009F0A8
:100C1000AEFCF8BD3046163004F0E8FA3146204606
:100C200008220A31603001F01CF9314620460422C6
:100C30001231583001F015F900F08AF907466E209C
:100C400038713846BD720A2231460B3001F009F97D
:100C50000421384607F092FC304609F088FC204613
:100C600008223146683001F0FCF8204604225C304E
:100C7000009901F0F6F82B460C220421304603F0CF
:100C8000CFFFF8BDC82D00204803002010B5FF207D
:100C9000013000F019F800280DD0FF20013000F0DD
:100CA0000DF801E003F016FFFF210131024800F0CA
:100CB00026F90028F6D110BD00040048014948611A
:100CC00070470000000401400146074840690840A1
:100CD000002806D0044800680840002801D0012000
:100CE00070470020FCE700000004014000B5034607
:100CF000186808F0F1F9987900282FD018790028A1
:100D000006D117480068196808431549086005E0CE
:100D10001348406819680843114948605879022807
:100D20000CD10F488068196808430D49886008464F
:100D3000C068196808430A49C8600FE0587900285C
:100D400006D107488068196808430549886005E0AE
:100D50000348C068196808430149C86000BD000025
:100D60000004014010B50D4A8B109B00D3588A0730
:100D7000140F0F22A2409343084A8C10A400135171
:100D80008B109B00D2588B071C0F0346A3401A43BD
:100D9000024B8C10A4001A5110BD00000800014045
:100DA00072B6002800D0FEE762B6704772B600281F
:100DB00008D0054A5168884204D00160506010781C
:100DC000401C107062B6704714030020002808D041
:100DD000044A5168884204D0016050601078401C79
:100DE000107070471403002010B50146002200293E
:100DF0000FD0521C0B68D2B2002B01D01946F6E777
:100E000072B6044B5C680C605860187880181870D3
:100E100062B610BD14030020074B014600290AD01A
:100E20001A78521C1A700A68002A01D01146F5E798
:100E30005A680A605860704714030020F8B50246EB
:100E4000CD782F073F0FCD7810263540002D01D0EB
:100E50008D782F431446002011E085062B0E0D8857
:100E6000012686403540002D07D025680F269E407C
:100E7000B5433E469E4035432560451CE8B20828F0
:100E8000EBDB141D0D882D120095002011E0850666
:100E90002B0E01258540009E3540002D07D025688A
:100EA0000F269E40B5433E469E4035432560451C77
:100EB000E8B20828EBDBCD78282D04D155690E88DF
:100EC0003543556106E0CD78482D03D115690E886C
:100ED00035431561F8BD70B54D07EB0E082902DAF0
:100EE0000546203501E0054624352C460F269E4058
:100EF0002568B54316469E403543256070BD0246C1
:100F000090680840002801D0012070470020FCE7CD
:100F100041617047016170470021C943018002218E
:100F200081700421C170704772B6084A5068002869
:100F30000AD01178002906D0491E1170016851604D
:100F40000021016000E0002062B670471403002019
:100F500006494868002807D00A78521E0A700268BD
:100F60004A6000210160704772B6FEE7140300205A
:100F700030B4134D6C68002C1ED000281BD0012209
:100F8000214629280CD9521C0B68D2B2002B05D05F
:100F90002938C0B219462928F5D801E029280AD8ED
:100FA0002878D31D984206D3801A28700868686094
:100FB0000020086000E00024204630BC704700009C
:100FC0001403002030B572B6124D6B68002B1ED092
:100FD00000281BD00122194607E0521C0C68D2B22F
:100FE000002C05D029382146C0B22928F5D801E0C7
:100FF00029280BD8287814460F34A04206D3801A2B
:101000002870086868600020086000E0002362B66D
:10101000184630BD1403002010B506F06DFB0446E1
:10102000007960380106880D034909582046884731
:101030002046FFF7BBFE10BD74C0000810B5037A50
:10104000002B14D10A49097801290FD0417A1529BA
:101050000CDA05290AD0132908D10122022109300E
:1010600003F0C2FDB121002003F024FE00BF10BD3B
:10107000C82D002070477047704700BF70470000C0
:1010800070B572B61F49497A62B68906890F0BD0CE
:101090000C24FFF749FF61210171D3218172C472D1
:1010A000042107F04DFA70BD00240646164D08369F
:1010B000E000001B295CFC2906D0401907223146BC
:1010C00000F07BFE002803D0641CE4B2042CEFD3B4
:1010D000042C0BD10024E000001B285CFC2807D066
:1010E000641CE4B2042CF6D3042C09D00024D0E70D
:1010F000E000001B40190722314600F07EFEF3E7B6
:101100000724C6E7200300206C2E002010B572B61D
:101110000E48407A62B68006800F0BD00C24FFF791
:1011200003FF61210171D2218172C472042107F091
:1011300007FA10BD0020064AFC21C3001B1A401C00
:10114000C0B2D1540428F8D30024E8E720030020DB
:101150006C2E0020FEB5044646898089864205D063
:1011600030184608012006436681A681FFF7DCFEA1
:10117000054621460C31103006220091029000F005
:101180003CFEA0890A214843A081208A2349C0004F
:101190002082277A882078434418D521002003F044
:1011A00089FD2046263006220099019000F005FEB8
:1011B00000282BD01A49002042008A5AB24203D894
:1011C000401CC0B20728F7D3401C6873608B3B46B5
:1011D000001DE88228460B2200210D3003F004FD9B
:1011E0006C202871284606220C30029900F02CFE53
:1011F0000C49EF72B8000D50608B0622001DA085CF
:1012000026840099019800F0F8FDFEBDB0202871F9
:101210000021284607F094F9FEBD0000C82D0020EB
:1012200036BC0008480300207047704770B505467B
:10123000FFF77AFE0446A87A2946C01CC2B22046AF
:101240000831083000F0D9FDA87A6072A87A002130
:10125000072801D821200155EF202071EA7A2B7A46
:1012600088201D4D58434019022A03D1422505709C
:101270008030C180184603F031FB002819D017498F
:10128000D800401872B6016800290CD0921E1300D5
:1012900007F0C6FB100B101010102020201010209B
:1012A000102020201020446012E04168216007E0F7
:1012B00062B670BD4268E57AD37AAB4202D322604F
:1012C0004460F5E78A4200D10460116821604068FB
:1012D0000460EDE70C60FBE7C82D002084030020CC
:1012E00070B50546FFF720FE0446512020712946BF
:1012F000204620220831083000F07FFD204607F00C
:101300002FF970BDF8B5067A882014497043451846
:1013100000275320475575204755FFF705FE6121EB
:101320000171DD218172C7720673697804464A072C
:101330000D300621002A06DA0322027041700222D3
:101340003346112103E00170334601220D2103F0E1
:101350004BFC0421204607F0F3F8F8BDC82D00200F
:1013600070B50546FFF7E0FD04465420207129467C
:10137000204611220831083000F03FFD204607F0DA
:10138000EFF870BD70B50546FFF7CEFD044652205C
:1013900020712946204600220831083000F02DFD3A
:1013A000204607F0DDF870BD00BF704710B5FFF7AD
:1013B000BBFD61210171C12181720021C1722C220A
:1013C0000273417301218173042107F0B9F810BD44
:1013D00010B5FFF7A9FD044661202071C620A07258
:1013E0000020E0722046082209490C3000F0C4FCBD
:1013F000084800784006400F072803D1207B4008AA
:10140000400020730421204607F09AF810BD000028
:1014100026BC00080B03002010B50446FFF784FD2E
:10142000217A61220271EB2282720022C272017360
:1014300088225143084A0323891860314A7F427346
:10144000897F8173042A00D14373042900D18373F7
:10145000042107F075F810BDC82D002070B50446B2
:1014600005460C3408220C49204600F085FC0B4848
:1014700000784006400F072803D1607840084000FC
:1014800060702B7A08220E21204603F0ADFBD82194
:10149000002003F00FFC70BD26BC00080B030020E9
:1014A00010B5FFF741FD61210171D1218172002149
:1014B000C1720421017307F043F810BD70B5057ABD
:1014C000FFF732FD044661202071D720A072002072
:1014D000E0722573882045430648052229182046D6
:1014E0000D30143100F089FC0421204607F028F863
:1014F00070BD0000C82D00207047704700BF7047C6
:1015000000BF704770B572B61849497A62B689064D
:10151000890F0BD00C24FFF707FD61210171D42145
:101520008172C472042107F00BF870BD0024104DC5
:1015300006460836E000021BA85CFC2806D05019BD
:101540000722314600F039FC002807D0641CE4B2C1
:10155000042CEFD3042C06D00024DCE7FC20E100AF
:10156000091B6854F6E71224D5E700002003002089
:101570006C2E002010B5144C0146E07A000701D50E
:10158000124801E011485C301C3060610A7A093170
:10159000931DC37700F031FCFFF7C6FC6121017198
:1015A000CA2181720021C172042106F0C9FF72B6FE
:1015B000E07A0007A07A02D5F721084001E008216F
:1015C0000843A07262B610BD20030020F82C002052
:1015D00070B5234DAA7AD20701D00C2434E001461D
:1015E000204C0F220831201D00F007FC207A012832
:1015F00003D0A1888A00891800E0332161611A496B
:10160000085C012803D1A17A002900D08120617AE9
:10161000002901D0402108432072607C12498000DB
:101620009C3141180E480422443000F0A5FB72B6EC
:10163000E87A8006A87A02D5DF21084001E020215F
:101640000843A87262B60024FFF76EFC61210171A5
:10165000C8218172C472042106F072FF70BD0000BF
:1016600020030020542D002012BC0008F8B5007A99
:101670004649C207C87A464B5DD0002572B601289C
:1016800062B62CD0187A07073F0F72B603F08EFAB5
:10169000064662B6012803D1002F10D0012F0ED0CC
:1016A0003A48443001783A48017000218161374955
:1016B000B000283100900858002802D004E00D2521
:1016C0000DE0FFF731FC0446002F21D0012F0AD096
:1016D000B02020710021204606F032FF002572B6AE
:1016E000002D21D025E02A48807A002800D001254D
:1016F00065733C20A0722649204606220B310E302D
:1017000000F07BFB204606222249143000F034FB17
:101710006A202071E672012020731C49009828314C
:101720000C501B484670D9E718480122817A1143B2
:10173000817262B61FE072B68A7A520852008A72CB
:1017400062B6C00716D15878114A882141437432D5
:10175000515C02290ED000280CD1012010700B4AD8
:10176000002128321068002804D0B02303711160D2
:1017700006F0E6FE0025FFF7D7FB61210171CC21C1
:101780008172C572042106F0DBFEF8BD2003002043
:10179000542D002080BD000870B50446FFF7C4FB3F
:1017A000257A61210171EE2181720021C1720573D8
:1017B000042106F0C5FEA089FB2801D9FB20A081E9
:1017C000E1891148814200D9E081218AFB2906D9AB
:1017D00088210E4A69438918803189782182618A7B
:1017E000814200D960820A49E800401821460C3144
:1017F00008220C4600F001FB2B460822142120464B
:1018000003F0F2F970BD000048080000C82D002068
:10181000B803002070B50446FFF786FB6121017113
:10182000EC2181720021C172617A11258A08002A97
:101830000DD1A27A93080AD1237A0D4C002B04D043
:10184000012B0CD0022B0ED106E0914201D0C572C3
:1018500009E06170A17006E00029FAD103E0002AD6
:1018600001D06270A270042106F06AFE70BD000013
:101870003803002010B50949027A0A70427A4A708A
:10188000807A8870FFF750FB61210171C421817259
:101890000021C172042106F053FE10BD0104002096
:1018A0007047000070B50246067A882022497043CE
:1018B0004418002E37D1907A0025810811D1D17AB1
:1018C0008B080ED1527A002A09D0012A13D0022A9D
:1018D0000ED020466030417F8175817F10E08842C4
:1018E00001D011250DE0214660318875C87508E0EA
:1018F0000028F8D105E0002903D02046603081752A
:10190000C175ED21284603F0D5F9002D0BD12046F5
:101910006030817D427F914206D100218175D2B233
:10192000084603F0B7F970BD20463346022216215F
:10193000763003F059F970BDC82D002010B5134C56
:10194000A27A520701D00C2414E072B60622014696
:101950000E480831533000F050FA72B6E07A800633
:10196000A07A02D5DF21084001E020210843A072BF
:1019700062B60024FFF7D8FA61210171C721817294
:10198000C472042106F0DCFD10BD0000200300201D
:1019900010B5144C0146E07AC00601D5124801E0AA
:1019A00011485C301C3060610A7A2030C2770931FE
:1019B00000F023FAFFF7B8FA61210171CB2181729F
:1019C0000021C172042106F0BBFD72B6E07AC006A8
:1019D000A07A02D5EF21084001E010210843A0724F
:1019E00062B610BD20030020F82C002010B5007A4C
:1019F0000F49C207887A72B616D0820707D40D4AFB
:101A0000012313709388138102221043887262B6F7
:101A1000FFF78AFA61210171CE2181720021C17222
:101A2000042106F08DFD10BDFD221040EEE7000000
:101A300020030020BC2D0020F8B5044672B61F4FCD
:101A4000B87A800762B601D50C262BE01C4D2146E2
:101A5000002604220A31A81C00F0CFF9207A687011
:101A6000A07BA871E07BE8716888164A904200D993
:101A70006A8068888100401881B26980A888904295
:101A800000D9AA80A88882008018A880081A6880D7
:101A9000F87A4006B87A02D5BF21084001E040211B
:101AA0000843B872FFF740FA61210171CD218172BC
:101AB000C672042106F044FDF8BD0000200300209A
:101AC000BC2D00203333000070B50546FFF72CFA1B
:101AD000044653202071294620461B220831083035
:101AE00000F08BF9204606F03BFD70BD7047704753
:101AF00010B5FFF719FA0446062207490C3000F02A
:101B00007CF961202071C220A0720020E0720421C3
:101B1000204606F015FD10BD0D03002070470000A3
:101B200010B5FFF701FA0446252210490C3000F0E9
:101B300023F961202071BF20A0720020E0720421EF
:101B4000204606F0FDFCFFF7EFF9084904461B228A
:101B50002531093000F010F9722020711B2020720D
:101B60000421204606F0ECFC10BD0000D8C000089F
:101B700010B5FFF7D9F90446082207490C3000F0E8
:101B8000FBF861202071C020A0720020E0720421C7
:101B9000204606F0D5FC10BD18C1000810B5FFF7AF
:101BA000C3F90446082207490C3000F0E5F861202B
:101BB0002071BE20A0720020E0720421204606F0B1
:101BC000BFFC10BD1EBC000870B5047A0546002C91
:101BD0000FD1B221002003F06DF80C350522054924
:101BE000284600F0C9F8234605220C21284602F0B9
:101BF000FBFF70BD0DBC00087047704770470000C8
:101C000010B5047AFFF790F961210171C321817247
:101C10000021C17204730121417388214C4304499E
:101C20006118497F8173042106F08AFC10BD000011
:101C3000C82D002010B5FFF777F961210171B4219B
:101C400081720021C172042106F07AFC10BD704738
:101C500010B50D49027A0A70427A4A70C27A8A70C7
:101C6000427BCA70C07B08710820FFF7ABF90028DF
:101C700008D061210171B32181720021C172042158
:101C800006F05EFC10BD00000804002010B50749F6
:101C9000807A0870FFF748F961210171B9218172DA
:101CA0000021C172042106F04BFC10BD000400208D
:101CB00070477047417A044A89005258037A0146B6
:101CC0000B3118461047000034BB000830B4427A8C
:101CD000044B92009B58047A0246817A204630BC1D
:101CE0000B32184778BA000810B505F005FD044618
:101CF0000079054990380006800D0958204688472C
:101D00002046FFF753F810BDF0BB00080F4A002033
:101D1000342141438B183433401CC0B253502C281B
:101D2000F6D3342100234843135009482D21426043
:101D300001704370074A1846C10053508918401C6F
:101D4000C0B24B600528F7D370470000AC230020D9
:101D500014030020D02C002030B40023002A07D91F
:101D6000CC5CC55CAC4203D15B1CDBB29342F7D3C5
:101D7000D01A30BCC0B27047002A05D0521E1206DD
:101D8000120E8B5C8354F9D17047002A0BD010B42B
:101D90000023CC5C521ED2B25B1C8454DBB2002AFE
:101DA000F7D110BC70477047002A05D0521E1206AA
:101DB000120E8B5C8354F9D1704730B40023002A93
:101DC00007D9CC5CC55CAC4203D15B1CDBB293424F
:101DD000F7D3D01A30BCC0B2704730B40023002A09
:101DE00007D9CC5CC55CAC4203D15B1CDBB293422F
:101DF000F7D3D01A30BCC0B27047002A05D0521EAB
:101E00001206120E8B5C8354F9D17047002A0BD056
:101E100010B40023CC5C521ED2B25B1C8454DBB2E3
:101E2000002AF7D110BC70477047002A0BD010B4BD
:101E30000023CC5C521ED2B25B1C8454DBB2002A5D
:101E4000F7D110BC704770470023002A08D910B49E
:101E5000CC5CC4545B1CDBB29342F9D310BC70471A
:101E60007047002A05D0521E1206120E8B5C835456
:101E7000F9D1704710B505F03FFC044600790549DB
:101E800080380006800D0958204688472046FEF716
:101E90008DFF10BD20C10008F0B50746C468007A68
:101EA000882148436D498DB045182846603008F0B8
:101EB00057FB2046143029467031052206460C9007
:101EC000FFF7CFFF29462046583108221930FFF787
:101ED000C8FFA57A49206946087000208873CD7331
:101EE00031466E460D22701CFFF7BBFF00205C4997
:101EF000325C095C514008AA1154401CC0B2102841
:101F0000F5D3104608F020FB08F0F4FA10225449EB
:101F10006846FFF749FF012069464870787A887063
:101F200008A808F024FB002008AF395C325C51405F
:101F30003954401CC0B21028F7D3384608F004FBCF
:101F400008F0D8FA01206A46107400219177D07702
:101F500004A80D2201300C99FFF783FF102240499D
:101F60006846FFF721FF21460B312A4668460C914F
:101F7000FFF777FF08A808F0FAFA0020395C325C16
:101F800051403954401CC0B21028F7D308A808F0BB
:101F9000DBFA08F0AFFA08A808F0E9FA04A808F09C
:101FA000D3FA08F0A7FA684608F0E1FA00202118F1
:101FB000335CCA7A20315A40401CC0B28A7007286C
:101FC000F5D360696E46FF220346F17913434B4017
:101FD000214629310B70030A367A134373404B7044
:101FE000030C6E46767A13437340000E8B701043D9
:101FF0006E46B27A5040C870217EF07A41400C980B
:10200000203081700020211833184A7E1B7B20313C
:102010005A40401CC0B28A730428F4D30020B07721
:10202000F07704A808F090FA08F064FA684608F01F
:102030009EFA0020395C325C51403954401CC0B2D9
:102040000428F7D36019042208A92230FFF709FFFA
:10205000281D2121085565720DB0F0BDC82D002046
:1020600080BD0008014610B51831083008F048FA64
:10207000FEF76EFF044661202071D920A072002077
:10208000E07220460C3008F083FA0421204606F066
:1020900075FA10BDF8B5067A8821134A71438C1879
:1020A000214660310D46093008F02AFAFEF750FF4C
:1020B00061210171DC2181720027C772067304213E
:1020C00006F05CFA002233460521104602F0A8FD16
:1020D000284608F04CFA0548022181716975276786
:1020E000A7672F752F77F8BDC82D0020200300208B
:1020F00010B510490830097804460A070E49120F36
:1021000051181022FFF750FE21460A4808F0F8F94E
:10211000FEF71EFF044661202071DA20A072002025
:10212000E07220460C3008F022FA0421204606F026
:1021300025FA10BD54030020CEBC0008F8B50446B3
:1021400013300090FEF704FF06461022223000995B
:10215000FFF787FE009803F049F8257A3046164EBF
:10216000AF00F051FEF7F4FE6221017100214172CF
:10217000DB21C172042106F001FA009808F0F7F99A
:10218000F0592146093116220C460830FFF769FE46
:1021900088200A49684340186030407D2B468007FC
:1021A00005D000220A21104602F03AFDF8BD1622A1
:1021B00003212046F8E7000048030020C82D002036
:1021C00010B5FEF7B1FE61210171E52181721E217A
:1021D000C172042106F0B4F910BD10B5FEF7A4FEDB
:1021E00061210171E42181720121C172042106F093
:1021F000A7F910BDF8B505460746067A8820CA49F2
:1022000070434418F97AC9480C35042240780B0011
:1022100006F006FC190E33323D3D4D51648295A007
:1022200032A5C582F7F7C4F7F7F6F5E1FB32F70000
:102230002078562807D1802020707D20025D31460D
:102240002A2002F027FD21462046062226310E30A4
:10225000FFF7B3FD00280FD0FEF766FE04466C20A2
:1022600020710622E672E91C20460C30FFF7C5FDFE
:102270000421204606F064F9F8BD20785628FBD1E9
:10228000812020706034627F31462A2097E0FEF77B
:102290004BFE044655202071394620461A2208314B
:1022A0000830FFF7AAFD204606F05AF9F8BD0022D3
:1022B0003346062151E0002233460621104602F043
:1022C00093FC387B022803D00122314600207DE0B8
:1022D000FEF72AFE67210171867219E020784E28E8
:1022E0000ED0562816D028781628DFD16034627FA9
:1022F00031461A2002F0CEFC0020A075E075F8BD32
:102300002270FEF711FE6D2101711A218172C672D1
:102310000421AFE72270E9E7082285492846FFF744
:102320002BFD844800784006400F072803D16878C9
:102330004008400068700822334609212CE0FEF76F
:10234000F3FD04466D2020710020A072E672082281
:10235000294689E7002233460B21002052E02078ED
:10236000432810D08C280ED0734840780007C6D57B
:10237000FEF7DAFD04466520207105222046A6728C
:1023800029460B3072E76A49052219392846FFF7BA
:10239000F3FC052233460C21284633E06D1C2078DF
:1023A00043280FD044280DD0562812D02846203874
:1023B000C07F1628A3D16034627F2878314602F0AE
:1023C00069FCF8BD227028780022314602F044FCF6
:1023D000F8BD2270EFE729786A7811408907890FE4
:1023E00004D07D22125D9143084001D16034607FAA
:1023F00028700222687033461721CDE705E041E0DE
:1024000037E08BE002F0F0FBF8BD29786A781140E4
:102410008F07BF0F1ED022466032917D002900D069
:102420000F40517F38408843070013D0B94210D085
:10243000B80701D5022702E0F8070AD001272F705C
:102440006F70608B21460830A08502222C31A81CB9
:1024500003E00027042239492846FFF7CEFC334623
:1024600004221821284602F0BFFB6034A775E775E7
:10247000F8BD2E48F1008030081833460822152197
:1024800002F0B2FB294A0021F00080328718284A66
:10249000480008322B5A125A934200D92A523A5A0B
:1024A0002B5A9A4200D22A52491CC9B20429EED3AF
:1024B0006888298880080E3880B2814202D980213C
:1024C000085501E0802211554008C01F298880B2BC
:1024D000814202D97F21085501E07F200155E8881B
:1024E000A98880080E3880B2814202D9822108551D
:1024F00001E0822211554008C01FA98880B28142A4
:1025000002D98121085501E0812001557F20025D1B
:1025100080346178304602F0AEFBF8BD012207211D
:10252000384633460B306DE7C82D002038030020B5
:1025300026BC00080B0300200804002080BD000812
:10254000164AD07929280FD02A280DD0322802D057
:10255000352821D108E0506AC189D1816030807F5F
:10256000012801D1491ED18170B5012090700C4C19
:102570000026E670FF2020700A4D6670286800284B
:1025800004D06868FEF748FC6E602E600222A11C31
:10259000FF2005F05BFB70BD7047000020030020AA
:1025A000AC2E002094030020014800687047000012
:1025B000D40300204248817800297FD0F8B5C07943
:1025C00028380E2869D201007944097949188F44C6
:1025D0000666660664646464646466060666394E6C
:1025E000F1787078814258D002462032914201D968
:1025F000202403E0081A0406240E4ED0324F31780E
:102600003A68507A431ADDB2937A181A4019C3B265
:10261000A34226D25118C0B20246301D0B31FFF73B
:1026200020FC601BC4B279683868884216D0827A70
:10263000407A0B31101A4019C0B280192246001D91
:10264000FFF70FFC3868817A407A081A201A307038
:10265000786838600068002800D078606019C4B2DB
:1026600012E051182246301D0B31FFF7FAFB30788B
:1026700000193070AC4207D10020307078683860A3
:102680000068002800D07860002C06D02146301D5C
:1026900004F086FF707800197070F8BD0EE00B4CE6
:1026A000E0786178401A1028F7DD6A2005F036F9E5
:1026B0001028F2D3102000F0D7FFF1E77047000098
:1026C00020030020882E00209C030020AC2E002038
:1026D000F0B5FA4AFA4E507987B0042864D0D06930
:1026E000F84947780197456809688D4200D0FDE3B5
:1026F00011460A7AAA180A72007802287DD20D467D
:1027000000287BD0F04F387804F0DCFEEC7AA97A10
:1027100020464C406040E872C0070BD0A00609D5A7
:102720001C22EA49EA48FFF79CFB0422E949EA48EF
:10273000FFF797FBE87A80070BD5600609D50C22D6
:10274000E649E748FFF78DFBE2490422081FFFF73F
:1027500088FBE87AE34A4007400E6872E9893878D6
:10276000091AE981296A4C68201A4860E969002041
:102770000870387848607D2141431469CB1755694A
:1027800009196B41536111613179C906C90E317163
:10279000D5490B6818180860C878EF2800D81DE2E2
:1027A0000007000FC87019E2D07A937A01465840AA
:1027B00043074CD04140D17210791646507102F057
:1027C00047FCF0690125C04C057021784160306AF2
:1027D000FF2101708178317104218170F07A410705
:1027E000490E7172C10719D01C22B849B848FFF7C9
:1027F00038FBB8490422081F01E0A0E146E0FFF7DA
:1028000030FBF069B2494570306A4570097A0A07B1
:10281000B649120F895C2278891812E0800711D519
:10282000AE490C22881AFFF71CFBAA490422081F94
:10283000FFF717FBF06902214170306A4170A84927
:1028400089884160207804F03DFE07B0F0BDA548BE
:10285000A74C026941691219002302615941416183
:102860003079A149C006C00E307119220868920162
:1028700080180860C878EF2802D90007000FC870D8
:10288000FDF7A8FF04F0A0FC07B0F0BD022004F0A3
:1028900019FE07F07DFC9748017AC02001436B20A8
:1028A00005F0C8F804F0E0FEE869934C4678002E85
:1028B00014D0924804F042FB042291497A2005F09A
:1028C00019FA00219B2005F0B5F8252004F09EFCA4
:1028D000012E53D0022E7DD000BF7FE1894868626F
:1028E000FF2004F093FCE87900282FD00120FEF7A8
:1028F00057FA696A04227A20091D05F0FBF9686A13
:102900007521095CA971027F2E30105C07F0E2FD91
:10291000686A027F2E30105C205C04F04DFC686A0F
:10292000027F417E521878498A5C0277083004F0B1
:1029300005FB686A6030407F02281DD0002004F04B
:102940002DFD04F0F9FD02F06BFB47E1696A0320FD
:10295000085604F061FC02F02BFB3220E871E88994
:10296000801EE881286A4168891E4160E869032168
:10297000017002214160BCE70120E0E7544F88214B
:102980007878604A414389186962697AC90606D431
:1029900000285CD102F018F90120787057E0E8793E
:1029A000002801D00220ECE00220385604F034FC6C
:1029B00002F0F0FB3878554E305C07F08BFD38782C
:1029C000305C205C04F0F8FB39784348405C387098
:1029D000387A00E038E04E4A0607360F9070012E34
:1029E00006D0E87A000706D54B484A4CC07E05E081
:1029F0004A4C0C2002E04B48494CC07ED070901CE1
:102A000004F0BEFB787A002818D0474804F0ACFDEB
:102A1000002004F0C3FC022E12D004F08DFD0B2028
:102A2000E871204604F094FD286A4168891E4160DF
:102A3000E8690321017002214160CFE03B48E5E7EE
:102A400004F06EFD0A20EBE7687A800607D404F0F4
:102A5000FFFD02F03FFB02F02DFB07B0F0BDE8796F
:102A6000002803D00320FEF79BF9B7E01C4E0A2094
:102A7000305604F0D1FB02F09BFA3078234F385CDB
:102A800007F028FD3078385C205C04F095FB0020CE
:102A900004F084FC707800284AD01420E8711C48A7
:102AA0000C21C17004F048FD286A4168891E41600C
:102AB000E86902214160032101708FE020030020BA
:102AC000B0030020D8030020CF030020542D0020A5
:102AD000F82C00206403002060030020BC2D00209F
:102AE000B02D0020A0030020D403002017BC000854
:102AF000400D0300003000200D3000205C0300205A
:102B000058030020C82D002064BC000800BC000849
:102B1000882E0020702D0020742D0020032D002011
:102B2000142D0020182D00206D0300200D0300201F
:102B30001520E87104F0F4FC02F0A0FA4EE0FD4923
:102B4000FF287DD00D46032812D1012004F0BAFCE5
:102B5000F9480078662817D0F848407A8106890E2F
:102B6000772004F03DFFE8690121416002210170F6
:102B7000E8694078002812D001287DD002287CD056
:102B80000920FEF70DF929E0EC483179407A052259
:102B900001433171EA49732005F0ACF8E3E7E879C5
:102BA000323806286AD201007944097949188F44DD
:102BB0000A02020A1CFDE889401EE881286A416871
:102BC000491E416008E0296A4868032807D0EA895D
:102BD000401E521EEA81486000F024FD25E204F008
:102BE0009FFC07F0D5FA3620E871D24D286A40687C
:102BF00004F068FCE8698078009002F03FFAED8903
:102C000002F000FA0646CF4800270290C948406A01
:102C1000014680318A88438A9A427AD2CB887D21C4
:102C200009028B4275D20178802919D1418B828D9E
:102C3000C919914214D106210170018CC18300E0B1
:102C400040E2818C06224D19014626310E30FFF7F5
:102C500008F9B848406A2030C078A84200D9054633
:102C60000098042856D2C100B7480818B149086234
:102C700041688C46A94202E0ECE0E7E1E8E041D39C
:102C80000178022916D2B1490B78F218D11CA94259
:102C900010D2AC1AA74AE41ED1817100CE18516A35
:102CA00027360A78022A01D1C97A8E196146491B52
:102CB000B14275D89F49496ACA890B785519CA8BA0
:102CC0005E0608D5029E9B5D002B04D00E46803622
:102CD000F3889B18F3800B4680339E88B2189A8045
:102CE0000A7F4B7ED3189A4AD25C0A779149CA6A06
:102CF000096B52188F49CA629649C978891C7F1C92
:102D0000CEB2FFB2817800918A4A4168D0616D1AD3
:102D10007CE745E08D48007831180831A94202D39C
:102D2000291A08398EB23118C91CA94225D3814EFF
:102D3000716ACA890B785519CA8B5C0608D5029C42
:102D40001B5D002B04D00B468033DC88A418DC808C
:102D50000B4680339C88A2189A800A7F4B7ED3183A
:102D60007B4AD25C0A77F26A316B52187949F26277
:102D7000C978891C7F1CCEB2FFB231186C1A6D4B1A
:102D8000C91CD98171000818273086B2586AE41E20
:102D90000178022902D1C07A801986B27F1CFFB265
:102DA000644D686A01468031CB8800E047E07D22AF
:102DB0001202934205D33721E9712221203081701C
:102DC000FCE38988428A914226D2418B5E4BC91925
:102DD0004183E96928798870C000C0180121E86141
:102DE000017044608078C000C01828628178297121
:102DF00000998170FF2146600170E969019848706F
:102E0000296A01984870019801F026FE686AE989EC
:102E1000C0894018E881CFE33721E97101780229A0
:102E200005D0422907D0082120308170C4E33E211B
:102E300020308170C0E3222120308170BCE3286AF9
:102E4000406804F03FFB02F019F902F001F9B5E324
:102E5000062096E6E8790C287ED00E2806D00F28AA
:102E60007BD0296A4868012878D0FFE0286A2E467E
:102E7000406804F027FBF0698078009002F0FEF8CB
:102E8000706A002183898181DB1D02F0BBF82F4924
:102E9000002209780191273103912649096B02919B
:102EA0002449496A0E468036B4466546AD88069583
:102EB0004E8AB5427ED2009D042D56D2EE00224DA0
:102EC00075191C4E35626E6805969E4230D32E7879
:102ED000022E15D2019E86190496F61C9E420FD230
:102EE000049C144F1C1BFE81CE7A00E079E3400065
:102EF0003018039EE41E8019059EF61A864262D899
:102F0000C889CE8BC31806980A4F80196646B080D0
:102F1000087F4E7E86190E48805D0877F86A029E0B
:102F200086190C48FE62C078801C521CC0B2D2B216
:102F3000AE7814E0200300200B03002000300020B6
:102F4000B0030020BEBC0008B02F0020CF0300203B
:102F500064BC00084C0300206DE067E073E000965D
:102F60006E689B1BFE4EF5619FE7019C0419E41CF3
:102F70009C4218D3C889CD8BC31860468088F84C12
:102F800040196546A880087F4D7E4519F548405D8B
:102F90000877E06A029D4019E062F348C078801C1F
:102FA000521CC0B2D2B2019C05195C1BEC4BED1C4B
:102FB000DD8100E007E0CB7A40001B180398521C2B
:102FC0001818D2B2E41E6546AD884E8AE44BB5426D
:102FD00025D24D8BAA184A83DA6919799170E34D8D
:102FE000C90049190122D9610A704C608978C90069
:102FF000491919628C781C71009C8C704860FF2004
:103000000870DB48DC69417861701C6A4178617046
:103010004270586AD989C0894018D88101E00120DE
:10302000087002F015F80F20D871C7E2286A4068CE
:1030300004F048FA07E0296A4868012816D104F02C
:103040006FFA07F0A5F802F019F8B7E2E87914383A
:10305000052835D201007944097949188F4402FDC9
:1030600016161600296A4868062804D0401E4860D3
:1030700000F0D8FAA2E204F025FA04F051FA07F0C1
:1030800087F801F0FBFF1820E87197E2286A44688E
:10309000062C12D0072141600846E41F04F012FA02
:1030A00001F0ECFF286A002802D04168091941604C
:1030B000B04801890919018180E200240620EDE76A
:1030C00007205EE5A648002FC0790ED0012F37D02B
:1030D000022F7DD00C20FDF763FEA14C0020E07193
:1030E00004F0ACFA002874D08EE19D4933280CD04E
:1030F00006DC282809D02B2807D02D281BD108E072
:10310000342802D0372816D103E00A20FDF748FE04
:1031100013E0486A20308478FDF71AFFC472877282
:1031200063210171042105F029FA384601F08AFE75
:10313000384601F049FD01F0A1FF01F0BBFFCCE7EB
:10314000874C0D2802D00E2805D101E000BF02E017
:103150000B20FDF725FE607AC0067DD58448007AF5
:1031600001078548090F415C84480078801C0818D5
:10317000C1B27B48C06984782646042C25D27C489D
:10318000007884467A4843697848E2001018744A07
:1031900010620278022A0ED242688A420BD3521A77
:1031A0006746002F03D06E48006A42600DE0704F02
:1031B000BF69BB42F7D36A4A84786D4FD061BA6960
:1031C00040681018B861042CDED3654F3A7901E0ED
:1031D0007DE017E1F869891E82700122027038795A
:1031E000C9B2C20061481018386283783B7184709C
:1031F000012241604270FF220270042C16D1042E7D
:1032000014D15B4A5069332809D01378002B08D0B9
:10321000FF22413290420AD35022551A07E0112270
:10322000FBE79269904201D9851A00E001254C48DC
:103230004F4FC06969184560B8694018B86138785F
:10324000002807D17869332801D00020B8614C48A4
:1032500000783870052101E02AE085E1B869C902EB
:10326000884217D37878474D80002858042105F00C
:1032700085F979780020890068503948EF22417A31
:1032800011404172C17A49084900C172817A4908E6
:1032900049008172042E05D0A64203D03048467101
:1032A00001F0D6FE2E48C069406804F00BF914E71F
:1032B0002F4C6078002803D101F086FC012060705B
:1032C00004F0C6F901F0DAFE01F0F4FE05E7244C43
:1032D000152801D0172801D106F05AFF607A800620
:1032E0007ED524480089122803D32249801C4988AE
:1032F00001E014200021E26995782A46042D25D2A8
:1033000067791A4BD600F31823621E78022E12D268
:10331000184E76888E420ED85E68142E0BD35E68E7
:10332000864204D0361A761C801E5E600EE0B01E07
:1033300001265E600AE09A78142801D15B6859186A
:10334000E669042AB270236A9F70DAD3042A02D194
:10335000042D30D01220074F7B888B4215D913E003
:103360002003002064BC00084C030020B02F002084
:10337000F82C0020B02D002017BC0008CF0300203F
:103380006003002048030020591AE36926799E70E3
:1033900001261E70491C59602179CB0095495918A6
:1033A00021628B7823718A7048603E89864205D9F4
:1033B000301A38810CE090488088CCE7B888388192
:1033C0003B788E48185C3870002801D10120387095
:1033D00002204870FF200870042D06D0954200E0BE
:1033E00008E002D0657101F033FEE069406804F046
:1033F00069F872E680480021017001F03FFE01F09B
:1034000059FE6AE606F0C4FEE0690178022924D27A
:103410004078002821D17A4E35466035687DA0710C
:10342000800715D0314618225831832004F062FC01
:10343000287F8021084328773146052278317E2075
:1034400004F058FC04F0AAFC287F4006400E2877C0
:10345000A0798007800F03F063FDE06940680228CF
:1034600001D2FFF7FAFAE07AA27A01465040420709
:103470007AD04140E1724907490E6172C10748D0D4
:103480001C2260496048FEF7ECFC04225F4960485A
:10349000FEF7E7FC607A1021084360725A48007A10
:1034A00001075C48090F415C5B480078801C0A18E2
:1034B000206A8178042912D24E4DC800401920623A
:1034C0000378022B07D24368934204D343689B1AC4
:1034D0005B1C436003E08178E0610429EDD3E3697C
:1034E00020799870434DC00040190123E0610370BA
:1034F00043608078C0004019206285782571817012
:10350000921EFF2142600170E0694370206A43709F
:1035100052E0810752D5400609D540490C22881A4D
:10352000FEF79FFC39490422081FFEF79AFC607AD7
:10353000202108436072304D206AAA888178921C4D
:1035400004291AD22B4EC800801920620378022B5E
:103550000FD24368142B0CD34368934205D09B1AB7
:103560005B1C921E436008E028E09A1E0123436022
:1035700003E0E06181780429E5D3042900D1122217
:10358000E369207998701B4EC00080190123E06127
:10359000037043608078C0008019206283782371B3
:1035A000817042602989891A2981FF210170E169AE
:1035B00002204870216A487001F04AFD184C607979
:1035C000042800D14DE7E0694068032801D3FDF7E6
:1035D00001F9E06940685028F4D903F0F5FD07B01F
:1035E000F0BD8D4202D9691A416000BF00BF07B02B
:1035F000F0BD0000B02F0020B02D0020CABC000894
:10360000C82D0020542D0020F82C00206403002039
:103610006003002017BC0008CF030020BC2D002051
:103620002003002010B40D487D240269416912195D
:10363000002359410261416109480179C906C90E57
:10364000017108490868401C0860C878EF2802D951
:103650000007000FC87010BC70470000A0030020D6
:10366000B0030020D4030020002871D0F8B5044630
:1036700090488F4F0578384603688E48061D42787B
:10368000C0789119FF2D04D0904201D9002B08D1A8
:10369000F8BD002856D0002A08D09042F8D9002B57
:1036A000F6D02246FF2004F0D1FA42E00090FDF768
:1036B0005FFC0546786028007E4828D04078224686
:1036C0008119FF2004F0C2FA7822292100203D60F0
:1036D0002A7168722872009B002B06D0292B1AD9F8
:1036E000A972009B293BDBB200932D68002DEED11F
:1036F000704DA9788907890F012910D06E4B7A681F
:103700001A607968096800290FD059600EE0C17805
:10371000417000201AE0AB723D602860E8E766481F
:10372000396801607968416001E05A602870002CB6
:10373000AED004F033FB2546292C0AD92824283D95
:10374000EDB208E0002AF4D1002078603860F8BDBE
:10375000ACE02C46002557480078FF283FD0564B58
:103760001A68917A507A814236D0091ACFB201197B
:103770002929504949787DD90B30101889193A46C2
:10378000FEF76FFB4C480168487AC01948724A48F6
:103790004068814210D0E11BCAB2009145493F1DEB
:1037A0004B780B305918C919434FFEF75AFB78680C
:1037B0000099427A511841723F490868827A407AEA
:1037C000824205D14868002802D00860006848603D
:1037D0003848417809194170002DADD1F8BD3748FE
:1037E0003749C0694078C00042185268002A4AD060
:1037F0000858827A2F4841785018C0B20219292AF5
:1038000008D22D4A0B301268891910182246FEF78B
:1038100028FBDDE729281CD22922274B171A1B6811
:103820000B30FAB289191818FEF71BFBE01BC0B267
:10383000009020483F1D4178009A0818C1191E4881
:1038400040680B30FEF70DFB1B4900984968487231
:103850000CE0201A2930C7B21748891940683A4647
:103860000B30FEF7FEFA1448406847721249486868
:10387000002800E00FE002D00860006848600D48B2
:1038800000210170A4E70A4F7868FDF7C5FA00200F
:1038900078603860A0E70B3010188919064F22466F
:1038A000FEF7DFFA3868417A091984E770470000AB
:1038B00094030020AC2E0020A4030020200300204D
:1038C0008C030020F8B50026164D84002859374691
:1038D000002817D0017A00291FD0427A8A4205D9E0
:1038E000D1B2027A891A417207720BE047720772ED
:1038F00001682951002907D0FDF768FA2859017A93
:103900000029E5D1002E0CD00179E62903D0EF295A
:1039100005D0F02905D1422102E00020F2E7032181
:103920004172F8BD30030020F0B5F94D83B0E8696D
:1039300041782846C079002907D0B026012979D0DE
:10394000022978D000BF03B0F0BD0026F049AE7068
:103950000A6A0124EF4F496A322806D033286BD017
:1039600034286AD0352869D10EE0B8786B461870D3
:10397000F87858708320EE62405CC98B8300E6487B
:10398000C0584143002429631521104600F03EFC35
:10399000002852D1002C04D0B87869460870F87815
:1039A0004870686A0C21C47A0C400178022908D159
:1039B00004210170014680318E80CE80418D00242B
:1039C000418203F0C2FAD249002808701CD00322B9
:1039D000D249A62004F03AF968460078D04F000793
:1039E000850F20462843385C410643D56846407819
:1039F00000283CD06A2003F091FFFFF735FEC9484C
:103A0000406800282BD032E0C748FB218470C17089
:103A10000025801C03F0B4FBBD4AC44FD069407838
:103A20008300F85800280AD0017A002907D00672CE
:103A30000068F7E7A8E1EEE25BE164E1A0E1506A2B
:103A4000FF58C4723420D071B648016800297DD077
:103A50004068FDF7E1F9B348466006607BE06946DF
:103A60000878EF21084069460870B148455D2C434D
:103A70003C5D00E00446A6493422486AC472CA711B
:103A80006A461278D20601D53322CA710178062916
:103A900003D104210170418D4182A348FB21847030
:103AA000C1700025801C03F06BFB20069848C0699C
:103AB00040782DD5FFF706FF07469548C069407846
:103AC00081009A484158084638431AD0002907D146
:103AD0007D7A20200543F87A01903846FDF776F983
:103AE0008B488179C9070CD0002F0AD0406A016F3A
:103AF000491C016705D16030017D491C4906490E0A
:103B000001758348C069407801F0E2F807460BE090
:103B1000864A81005058002805D0037A002B02D035
:103B200006720068F7E75758600614D56846407873
:103B3000002810D07648817989070CD5406A816FBA
:103B4000491C816707D16030017F00E003E0491C18
:103B50004906490E0177002F24D06D4F3878002890
:103B600010D0F86973494078C000411849680029AD
:103B700004D1714940184068002803D01020044344
:103B80003320F871F8692146407800F035FD0028AF
:103B900035D1F869407881006448405800282ED01B
:103BA000342026E001202043C1065F48C90E817001
:103BB000C670801C03F0E4FA554F786A028A002A26
:103BC0001DD08189914219D2620614D5694649787F
:103BD000002913D1210603D48421095A00290DD0CC
:103BE00006F0D6FA786A8189491C81818030868006
:103BF0003620F87103E00029F2D100E08681A806A2
:103C00003727002842DAE84380070DD068063DD503
:103C10003F48C0694578FDF79BF9642101718572C1
:103C2000042104F0ABFC31E0394D686A01780429C5
:103C300005D1424A0199515C017086210E520199C9
:103C4000022906D006290DD00B2910D00C291AD133
:103C500014E006F09DFA696A162020318870EF7131
:103C600003B0F0BD53210E54042101700BE002217A
:103C70005322115406676030067504E001788C29E0
:103C800001D104210170E8793728E9D0204D287846
:103C90000028E5D0600623D56846407800280BD080
:103CA000A879800708D59B2003F0F0FDC0060BD54E
:103CB00068460078800707D0E8690099407800F0EE
:103CC000CBFAB02809D00BE0686A3D212030817022
:103CD000EF7106F05DFA03B0F0BD06F059FAEF712E
:103CE000686A8030868003F051F9696A487703B0CA
:103CF000F0BD4031C87C002805D12621104600F0D7
:103D000085FA00281CD006F043FA36207AE200003B
:103D100020030020AC2E002044BC0008D10300206A
:103D2000EEBC000894030020882E00203003002001
:103D300004BC00087C0300208403002032BD00087E
:103D40003520E871A879800713D5696A8023084671
:103D50006030027F78311A43027705227E2003F01B
:103D6000C9FF04F01BF8686A6030017F4906490EFC
:103D70000177A8798007800F03F0D2F803B0F0BD77
:103D800006F006FA03B0F0BD0F240A2807D00B286E
:103D900008D00C280AD00D28F4D106F0F9F9EC71FE
:103DA00003B0F0BD0C20E87103B0F0BDF848C47159
:103DB00003F0CBF80028E3D002226946FF2003F08D
:103DC00045FFF44F387A05072D0FFDF7C1F804467B
:103DD00001900834067122222146FF2003F036FFAD
:103DE000684600780007000F03287DD005287CD1A5
:103DF00006F0CEF9002D02D0012D0DD0FEE0B87CEA
:103E0000032801D0022818D168460078019903F0F0
:103E100051FC002869D110E0684600784006387AE5
:103E200002D4000661D401E000065ED50622DA491C
:103E30002046FDF7D2FF002857D168460078019947
:103E400003F01EFC002850D1D248D449457868467A
:103E50000078400604D50120AA008A58507303E078
:103E60000020AA008A585073CC48AF00C0592146A0
:103E7000062216311430FDF7F4FFC8490020C95955
:103E8000264688722036707806224109C348C059F8
:103E9000817670784109BE48406A8030C170BF4861
:103EA0002146C0590E30FDF7DCFFBC480421C05943
:103EB00004F064FBB9490020C851B548C078002817
:103EC00002D02839401EC870B14F2146786A1522A9
:103ED0000C31001DFDF7C5FF786A2522B0492E3050
:103EE000FDF762FF002001E04BE087E0F862786AAE
:103EF00003468033D9788A00AA498958C28B4A433D
:103F00003A63E17C0A225143CAB2C27271780A2430
:103F1000C906C90E41767178C906C90E017702211A
:103F20000170818961438181418AC9004185C189CC
:103F3000C1838C009C800A23594389B21346C181F6
:103F400008334182994201D1223AC272FDF700F84A
:103F5000E92101710572002104F010FB8D48796A96
:103F60008078C870787AEF2108407872F87A400833
:103F70004000F872B87A40084000B8720E20F8711C
:103F80003CE0002D01D0062D38D103F007FFB87CAE
:103F9000012801D0032806D168460078019903F072
:103FA00089FB00282AD168460078019903F068FB54
:103FB000002823D1387A764D010909017A48091D74
:103FC0008170E97AC90605D57849794CC97E891D81
:103FD000C17004E077496F4CC97E891DC1703C34C3
:103FE000801C03F0CDF8787A002812D0724803F0D4
:103FF000BBFA204603F0ACFA0D20E87100210198CD
:1040000004F0BCFA6248C0790F2800D1B8E603B0CA
:10401000F0BD6A48EBE71821694C142827D0152811
:104020007ED016287DD01728F1D1E97106F0B0F8BE
:1040300002F08BFF0028EAD05820FCF787FC00280C
:10404000E5D102226946FF2003F000FEFCF780FF65
:1040500001460446067125220831FF2003F0F6FDD3
:10406000684600780007000F04287DD1C0E0E971A0
:1040700002F06BFF0028C9D05820FCF767FC00282D
:10408000C4D102226946FF2003F0E0FDFCF760FF87
:10409000014606710746083125220E46FF2003F02F
:1040A000D5FDE079002810D003F078FE684600784E
:1040B000394603F0FFFA002807D006F069F800211E
:1040C000384604F05BFA03B0F0BD69460A78002078
:1040D0001107090F0DD0012908D0022906D00629A1
:1040E00007D006F055F8002138466BE006F050F88E
:1040F0001CE0510600D58020A179002901D0402183
:1041000008430321084328498870881C03F038F8C5
:10411000A07900280FD0284803F026FA162001E0E5
:104120000BE06CE0E871304603F012FA3946009873
:1041300000F0F4FFD7E72148EEE7E97106F028F830
:1041400002F003FF0028BED05820FCF7FFFB002838
:10415000B9D102226946FF2003F078FDFCF7F8FE92
:1041600005460671252200E046E001460831FF20A1
:1041700003F06CFDE079002828D003F00FFE6846BC
:104180000078294603F096FA00282ED11EE00000A0
:1041900020030020F82C0020032D002048030020DD
:1041A00064BC000844BC0008882E0020942D002028
:1041B000542D0020382D00206D0300200D03002019
:1041C000B02D002004F0DAF903B0F0BD68460078A5
:1041D0000007000F05D0012803D0022801D00628CF
:1041E00003D12946009800F099FF00212846E9E70D
:1041F0002146009800F092FF00212046E2E703F0FC
:104200008FF91720E87103B0F0BD000010B4104C16
:104210008378626AD289520912325218042B0CD266
:10422000D9000C4B4468C9184B68091D1B199342EF
:1042300006D99B1A0B60426006E0E389934202D2E2
:1042400010BC01207047416010BC00207047000086
:1042500020030020B02F0020F3B50804070E8807C4
:1042600081B0800F00900198DA49C0004518DA4803
:10427000416A5320465C002E0FD00098012804D0DC
:10428000022802D0032845D107E0002F05D03D20A9
:1042900020318870B02003B0F0BD6A68002A1FD0BA
:1042A0000098012802D002281AD10DE0002F19D160
:1042B00000211046837A00685918C9B20028F9D144
:1042C000D07A001D88420BD1019810726968712064
:1042D00008710421686804F05FF9002068602860B4
:1042E000002F71D0BD484468002C13D000980328DB
:1042F00013D0022821D07820B84920710B68002BF8
:1043000071D0286800286FD0597A2926B44F002927
:104310006BD105E1B02003B0F0BDE7202071A7729A
:1043200001982072E17A19290BD8AE487F1E405CB3
:10433000874204D1AC48415C02E07120DCE71A21DD
:10434000E172A54D686A0278530616D5A74BD75C73
:1043500004238F4201D1037008E0072906D00D29FC
:1043600004D0112902D0172910D103E0002286239E
:104370001A520BE0562AEED008E0192906D89C4BB9
:10438000042A5A5C16D0042A00D00270192973D26C
:104390000A007A441279921897440E0E4E545C6CBF
:1043A00065AC77776F72B48077ACAC80ACACACACFA
:1043B000ACAC8A000270E9E7002E06D03D21203027
:1043C0008170B02020719DE0FDE000290ED02146D3
:1043D00005220C311430FDF744FD2146686A0222A3
:1043E00011312C3006E0E9E0F0E09FE021460B229D
:1043F0000C312330FDF735FD686A818D428B914287
:1044000003D0891A7B4A914205DB28212030817034
:10441000B020207176E0C18C024601842032D3782E
:104420000A267343D370828C714372438284C184A1
:10443000418DC900418565E0217B20308170B0202D
:1044400020715FE00221A971002E5BD10121403073
:10445000C17457E001214422A9710270002E51D18C
:104460004030C1744EE02673A979C943890701D150
:104470004030C174032001E03CE00120A87141E01C
:10448000002181676030017710E0217B2D221140EF
:104490004170617BC907C90F817033E001784329FE
:1044A00001D044292ED100214030C174A97129E0E6
:1044B00098210170214602220E312C30FDF7D1FCEB
:1044C000686A818D428B91429FD0891A494A9142F4
:1044D0009BDA217B627B11408907890F1CD06030F9
:1044E000437F8B4203D08275217BC17502E000219E
:1044F0008175C175002E05D0696A3D202031887014
:10450000B0202071686AA9796030417500BF002130
:10451000204604F041F851E0002160308175E4E765
:1045200039688B4202D17A6891420BD0827A99180D
:104530008018B21AD2B20B300B31FDF792FC28680A
:1045400086720EE0827A80189B188A7A19460B319F
:104550000B30FDF786FC28683A68817A927A8918D0
:1045600081721E4E7068417A002925D03068417AE8
:10457000002915D13968884212D0FCF727FC386829
:104580003060427A3946292A08D14A68002A05D083
:104590000260786800213060016001E00021016064
:1045A0003068417A827A914200D0817229687068BD
:1045B00008603068286001E0FCF72EFC0748002105
:1045C00041600160277903B03846F0BD48686860F3
:1045D0000868EFE78C0300202003002094030020EC
:1045E000A403002066BD00084CBD0008BEBC000846
:1045F00018BD0008FF7F0000F3B581B00198B249F3
:1046000080000090B14E0958316071600879E62849
:1046100010D0EF280CD0F02812D00024AC48406A0B
:104620008030407802091201821A012A0AD00BE078
:104630000324F3E7487A8A7A904201D10224EDE715
:104640000124EBE7401EC0B2029AA24D2243D206DB
:10465000D20EAA700022EA70012C0CD0022C0AD0D3
:10466000032C3ED1887A0872E8708A7A281D0B31B3
:10467000FDF7F7FB1CE00B7A4A7A1F18974206D227
:10468000DAB212180A72E9780818E87010E0002807
:104690000ED0D21AEB78801AD218EA704A7A0A72CF
:1046A0000A68C0B2002A03D0316009687160E2E78D
:1046B000E878102815D90007000F012811D170687B
:1046C000027A092A02D3093A027207E031680927FF
:1046D0000B7ABA1A9A1A0A7200210172E87809381C
:1046E000E8707A49002009680E460A7A4B7A9A42A5
:1046F00002D29A1A1018C0B2072823D809680029D4
:10470000F3D100281ED0072802D80821081AC0B209
:10471000E978091A102905DD0907090F012901D1D6
:10472000401CC0B269494A68117A814201D3091A12
:1047300004E0337A411A591A317200211172E97872
:10474000081AE87060490098EF780E58202F00D9B9
:1047500020276F7000255D480660327AB07A717A42
:10476000BA4213D2401A81195A480B314019001D20
:10477000FDF777FB307A391ACFB24119CDB25549DE
:1047800008703068002810D00646E4E7401A811906
:1047900050483A464019001D0B31FDF762FBB07AD4
:1047A000717A401A4B49C0190870484A166030683F
:1047B000002807D04749B57A0B78AB4202D1106088
:1047C0000020087010680168002901D0516000E0E5
:1047D00050603F4DA879C00705D0696A05227E2048
:1047E000703103F087FA3A4DA8798007800F02F004
:1047F00097FB696A0A466031087D4006400E0875DD
:10480000A879C30737D0497F022934D1314FF978CD
:10481000072930D8354620356978002903D0116F33
:10482000726991421BD0002131720298012210431B
:104830000207120FBA70F970B81C02F0A1FCFCF765
:1048400087FB59210171204A00995158C160019993
:104850000172447203F084FE002003B0F0BD022117
:10486000084002F05DFB6A78FA7031467A702231B6
:10487000381DFDF7F6FA3E2003F050F84021164CA3
:10488000084020700DD01248C189491EC181006ABC
:104890004168491E4160FEF7C5FE21783E2003F0C5
:1048A000C9F80C4CA01C02F06BFCE078002806D084
:1048B0006178201D02F064FE0549012088700249DC
:1048C0000098085803B0F0BD300300209C0300207E
:1048D00020030020882E0020C9030020882148439F
:1048E0000349085C022801D200207047012070476C
:1048F000C82D0020F7B515460098FFF7EFFF0028F8
:104900000CD02846FCF75EFB060007D00020072DE0
:1049100001D821218855344600271BE00120FEBD27
:10492000292D03D32922293DEDB201E02A46002595
:10493000F0202071A2726272002020720198C119C9
:1049400020460B30FDF759FA2068002802D029379D
:104950000446FFB2002DE3D1E620307172B6009814
:10496000FFF7BCFF00280BD000980949C000401891
:104970000168002909D00E60046062B60020FEBD07
:104980003046FCF731FA62B6C8E74660F4E700004B
:104990007C030020F8B515460F460646FFF79EFF3C
:1049A000002824D0FCF7C0FA040020D00020072DF6
:1049B00001D821210855E6212171A5726572207266
:1049C00020462A4639460B30FDF717FA72B63046B4
:1049D000FFF784FF00280CD00A49F0004018016856
:1049E00000290CD00C60046062B60020F8BD0120E4
:1049F000F8BD0021204603F0A3FD62B6F7E744604E
:104A0000F1E700007C030020F8B515460F46064686
:104A1000FCF79EFA040019D00020072D01D82121AF
:104A20000855E6212171A5726572207220462A463A
:104A300039460B30FDF7E1F90649F00040180168EE
:104A4000002905D00C6004600020F8BD0120F8BDED
:104A50004460F8E77C03002070B51D4D04466A6A87
:104A6000508B918D884232D91078042341280CD084
:104A70002946496A6031582810D0812805D09828E5
:104A800025D1887D002808D008E01370FCF760FA73
:104A9000E92101710472002117E013701370887D01
:104AA0000026002804D04877C87D88778E75CE759B
:104AB000FCF74EFA742101718672C472696A603122
:104AC0004A7F0273497F4173042103F057FD70BD93
:104AD00020030020F8B530490120487002F040FA68
:104AE0002E48552600782E4D66282BD03E2002F009
:104AF00015FF3040044672B601463E2002F09AFF90
:104B000062B6600605D572B6FDF754FDFDF7E0FD0F
:104B100062B6E00703D072B6FDF712FD62B614204C
:104B200004420ED0600706D51E48017AC02001431A
:104B30006B2002F07FFF72B600202870FEF7F4FEB3
:104B400062B6F8BDAA273E2002F0E8FE04463842CD
:104B5000F9D1344072B614490AD02046BF222C70D5
:104B6000104000D0087021463E2002F063FFC7E7E6
:104B7000287842060ED54028C2D10878012805D0F1
:104B8000042805D01028BBD10424B9E71024B7E7C6
:104B90000124B5E74024B3E7200300200B030020E5
:104BA000C903002000300020CA030020054900206E
:104BB000882242438A5C012A03D0401C0006000E72
:104BC000F6D07047C82D002070B5064D84002859D6
:104BD000002806D0B0210171002103F0CFFC002095
:104BE000285170BD48030020FFB581B01E46154610
:104BF0000F46FCF799F90446E82020712672681CDC
:104C0000E772A072002D05D020462A460C3001998B
:104C1000FDF7F3F80021204603F092FC05B0F0BD4B
:104C2000FFB581B01E4615460F46FCF791F90446C4
:104C3000E82020712672681CE772A072002D05D052
:104C400020462A460C300199FDF70BF90021204639
:104C500003F094FC05B0F0BD70B514460D46064651
:104C6000FCF762F96621017146728572C4720421F3
:104C700003F066FC70BD70B514460D460646FCF7A1
:104C800053F97321017186728581C481042103F077
:104C900057FC70BD70B514460D460646FCF744F946
:104CA000742101718672C57204734473042103F088
:104CB00047FC70BD70B50C460546FCF735F962211E
:104CC00001714572C472042103F03AFC70BD00000A
:104CD00030B4224C8300E158002200293AD1214D02
:104CE000C1006D6A1E484035ED7C0818002D13D0B8
:104CF000416800292ED0C97AC91E0F2915D20D008E
:104D00007D442D796D19AF44121212121010101239
:104D100012101210101012004268002A07D1124817
:104D200008184168002902D114E0002A12D0416815
:104D3000E1504268116804E00D79F02D04D10A4673
:104D4000096841600029F7D1002111604268002AFA
:104D500000D10160E05830BC7047000030030020F3
:104D600084030020200300207C030020F8B50746C0
:104D700088202E49784346182D48FD00281808221F
:104D80002C49FCF7F9FF88222B493046FCF7F4FF49
:104D900072B60121304631706030417781771B2136
:104DA000C177803631707170B170214EBA00883E83
:104DB000B058224B224F00280ED01978491C197088
:104DC0000168002902D00800F7D105E039680160C8
:104DD000B05838600020B05062B60020002804D0DF
:104DE000012805D0022806D11DE011493C3901E017
:104DF0000F4934396C1872B62668002E0DD06168E0
:104E00001A78521C1A7009680029F9D13968316082
:104E10006168396000216160216062B6401CC0B2E7
:104E20000328DBD3F8BD02492C39E3E7C82D002065
:104E3000B80300202EBC000880BD00081403002029
:104E400018030020F8B507468820304978434618F3
:104E50002F48FD00281808222E49FCF7A5FF8822BC
:104E60002D493046FCF7A0FF0121304631706030FB
:104E7000417781771B21C1772030017041708170AB
:104E80002649BA00C878274B401CC8702449885866
:104E9000002810D00F461978491C197001680029A4
:104EA00002D00800F7D106E01F490E680660BE5820
:104EB0000E600021B9501D480021281884461C4866
:104EC0002F181C482E18002904D0012904D00229CB
:104ED00005D103E0644602E03C4600E03446256824
:104EE000002D0ED060681A78521C1A7000680028D5
:104EF000F9D10D4A10682860606810600020606079
:104F00002060491CC9B20329DDD3F8BDC82D00209B
:104F1000B80300202EBC000880BD0008200300203C
:104F20003003002014030020180300207C0300201D
:104F3000840300208C030020F8B50646143605468D
:104F40002E3500231C461846315C0122114202D046
:104F50002B55641CE4B25B1C52001206DBB2120E2D
:104F6000F4D1401CC0B20528EED3252C0DD025204D
:104F7000001BC2B228192946FCF73FFF03E0641E5C
:104F8000E4B2285D2854002CF9D1F8BD10B502F028
:104F9000B3FB044600790549B0380006800D095876
:104FA000204688472046FBF701FF10BD24BE0008BD
:104FB00070B5104EF47A40252C432146792002F03A
:104FC00039FDF4720C49012008730C4800786628FA
:104FD00005D0717A7720294302F02CFD70BD084975
:104FE000727A08791043284308710522732002F071
:104FF00081FE70BD00300020200300200B03002044
:10500000B00300200448026BC16A8918C1620348DA
:10501000C078801CC0B27047200300204C030020E1
:105020000948406A0278C18B53068030002B06DAAB
:10503000064BD25C002A02D0C2885218C2808288F5
:10504000511881807047000020030020BEBC00087A
:1050500008494879042809D0074AC0008018C86167
:105060008078042803D0C0008018086270470020B0
:10507000FBE7000020030020B02F00200B4AD1697D
:10508000137988788B70517911710021507104283F
:1050900009D0106AD0618078042805D00449C00086
:1050A000401810627047D1611162704720030020E0
:1050B000B02F002010B506484179042904D0C069FA
:1050C000406802F0FFF910BD19208001F9E70000E7
:1050D0002003002030B40F4A116A137988788B704E
:1050E000537913710023507104280FD00A4CC0006B
:1050F0000019D061456849686918416080780428C2
:1051000005D0C0000019106230BC7047D361136233
:1051100030BC704720030020B02F002070B50E4631
:10512000054603221A49A62002F090FDFBF710FF66
:1051300004466B20207131462046062208310D308E
:10514000FCF78FFEE8B2410601D5012100E0002105
:105150000007000F2173E072012816D0A804800E0A
:10516000801FC5B2E574002D06D0314620462A4680
:105170000E311430FCF775FE01F008FF6119087557
:105180000421204603F0FAF970BD0025EAE700008B
:10519000D103002070B5114DEC7ABF2004402146A8
:1051A000792002F047FCEC720D49022008730D488B
:1051B00001784020662905D0697A0143772002F002
:1051C00039FC70BD084A6B7A11791943014311719A
:1051D00005220549732002F08DFD70BD00300020CE
:1051E000200300200B030020B003002070B50E4CFC
:1051F000054620780D490007000F41181022284667
:10520000FCF7D2FD2078C00704D02946204605F0DF
:1052100077F970BD044805F0A3F9284605F094F924
:1052200005F068F970BD000054030020CEBC0008F2
:105230000EB50121084601F0F3FD08210120FBF71E
:1052400091FDFF20013000900021684601714171FD
:105250008171FBF74BFD0721684601720021417205
:10526000817202A800F02AFC0EBD0EB500F01EF8F7
:105270000121084601F0D4FD08210120FBF772FD51
:10528000FF20013000900021684601714171012129
:105290008171FBF72BFD07216846017200214172E5
:1052A0000121817202A800F009FC0EBD08B50121A0
:1052B000880401F095FD6846FBF72EFEFF210131C1
:1052C00068460180012181700421C170694602484D
:1052D000FBF7B4FD08BD00000004004810B5012133
:1052E00049020A48FBF716FE012003F07FF901216D
:1052F00049020648FBF70CFE012003F077F9012173
:1053000049020248FBF706FE10BD000000040048F9
:1053100008B50121880401F063FD6846FBF7FCFD38
:105320000121490268460180012181701021C1706C
:1053300069460248FBF782FD08BD000000040048F2
:1053400000BF704710B58CB00C46122812D2010075
:105350007944097949188F440D081629AD5E7951B1
:10536000B4BBC2C9D8DF0FEAF3FA7C4A0120126845
:10537000214690470CB010BD784A0E2012680021DB
:1053800090470CB010BDE07AE11C0930C2B268460B
:10539000FCF733FDE07A0C34005D08A908726F4A0F
:1053A00002201268694690470CB010BDA0786A468A
:1053B0001070E0785070607B227B000210436A46D8
:1053C0005081E07BA27B000210436A462146908117
:1053D00008799070487C0A7C000210436A46D081AC
:1053E0004879D0700622A11D01A8FCF7C5FC5B4AD4
:1053F00003201268694690470CB010BDA07869463A
:105400000870E078554A487012680720904769464E
:105410000878FF2187E060786A4610702178517023
:10542000002901D000213CE0002103F099FE002872
:10543000E2D168460078002103F014FE6846007847
:10544000474A012104F096FF0CB010BDE0786A468F
:105450001070A178517061792279090211436A466E
:105460005180E179A279090211436A469180617AFB
:10547000227A090211436A46D180002103F070FEAE
:10548000002804D168460078002103F0EBFD68464F
:105490000078012103F064FE012804D168460078F9
:1054A000012103F0DFFD2D4A06201268694690476E
:1054B0000CB010BD294A04201268002190470CB09E
:1054C00010BD264A08201268214690470CB010BD36
:1054D000224A09201268214690470CB010BD1F4A8D
:1054E0000A201268214690470CB010BD20781D4A52
:1054F000022104F03FFF60780028F5D0174A0B2006
:105500001268214690470CB010BD144A0C20126856
:10551000214690470CB010BD104A0D20126821465C
:1055200090472078022103F09DFD0CB010BD0B4A7E
:105530000F201268214690470CB010BD07E0FFE72E
:10554000064A10201268214690470CB010BD034A4D
:1055500011201268214690470CB010BD00030020B6
:105560000053070080A9030070470000F8B5214EE2
:10557000827A01460B3173680446CF2A37D009DCA2
:10558000C32A23D0CC2A11D0CE2A02D10E2000214A
:105590009847F8BDD02A15D025460C35DD2A1DD0F8
:1055A000EB2AF6D1092029469847F8BD01209847F3
:1055B000114912484A7802700622801C891CFCF7A7
:1055C0001CFCF8BD042000219847F8BD607B6946AB
:1055D0000870A07B48700A209847F8BD03F02AFEA7
:1055E0001020607372680D2029469047F8BD0F2087
:1055F0009847F8BD000400200B0300209904002008
:10560000C17ACF2906D10F2201461046024A09313C
:1056100052681047704700000004002070470000E7
:1056200010B5044603F006FE05480078C00600D514
:1056300000BF0720034A214652680831904710BD39
:105640000804002000040020F8B52F4F0446B87C61
:10565000012600283BD1E07A012838D12B48857AF1
:105660002B4800780540E8071BD0A07A1023294A70
:10567000062104F0B6FEA07A0A23274A072104F087
:10568000B0FE102223492548FCF7B7FB0822224927
:10569000F81DFCF7BBFB022221492248FCF7B6FBB0
:1056A000BE74A8070BD5A07A10231F4A082104F066
:1056B00098FEA07A0723144A092104F092FE680795
:1056C00005D5A07A1023194A0A2104F08AFEF97C34
:1056D0001748002902D00221017000E00670154829
:1056E0000025067014480570FBF71EFC7721017138
:1056F000A17A01724572042102F022FF0F4800785E
:10570000000600D500BFF8BD94320020B932002059
:10571000840400200433002014330020A832002029
:105720001C330020A3320020440400205404002035
:10573000800400207F0400208D0400200804002045
:1057400070B504460F481049C27C0120002A02D0DF
:1057500002220A7000E008700C49002508700C480D
:105760000570FBF7E1FB77210171A17A01724572A7
:10577000042102F0E5FE0748C078000600D500BF0E
:1057800070BD000094320020800400207F040020BF
:105790008D0400200804002000BF704770470000FF
:1057A0000949097989060DD508490978890709D574
:1057B00002220146104610B5054A0831526890474A
:1057C00000BF10BD70470000080400200104002045
:1057D0000004002010B5044616480079800618D54C
:1057E00015480078C00714D000BF072221460D31AC
:1057F0001248FCF702FBE07A1149C0004018082269
:105800001049FCF7FAFAE07A04230F4A582100F015
:10581000C5F903F0AFFCE17A0C4A172050540C494B
:10582000002008700B4A0320214652680831904737
:1058300010BD000008040020010400209432002064
:105840008504002099040020540300207D040020DA
:105850000D0400200004002008490979890604D5B8
:1058600007490978490700D500BF00218172062247
:1058700001461046034A08315268104708040020C8
:1058800001040020000400200749097989060AD58F
:1058900006490978490606D5112201461046044AF0
:1058A0000A315268104770470804002001040020A4
:1058B00000040020F8B50546FBF736FB2C4E0446E5
:1058C000B17C284600270B30002906D00A22F11DA2
:1058D000FCF773FA002831D005E00A222549FCF7CD
:1058E0003BFA002811D0DD202071A87A2072002117
:1058F000204602F025FE20480079800604D51F4886
:105900000078C00600D500BFF8BDDC202071A87A61
:105910002072707C102808D81021081A0206120E76
:1059200003D014491648FCF727FA204610221449E0
:105930000930FCF76BFA13480770D8E7DC202071B8
:10594000A87A20722046093010220F490546FCF73C
:105950005DFA707C102808D81021081A0206120E71
:1059600003D004492846FCF707FA06480770BEE74B
:105970009432002080BD00080804002001040020AB
:10598000C43200207F040020A83200200949097990
:1059900089060DD508494978090709D50822014625
:1059A000104610B5054A0A315268904700BF10BD35
:1059B00070470000080400200104002000040020BB
:1059C00004480079800604D503480078000700D514
:1059D00000BF704708040020010400207047000049
:1059E0000C2201461046024A083152681047000056
:1059F00000040020704700BF704700000248407854
:105A0000000700D500BF7047080400200B220146A4
:105A10001046024A08315268104700000004002076
:105A20000D2201461046024A083152681047000014
:105A300000040020417B072919D270B5782101713B
:105A40000446017A0A480B4EC1760025002C0DD081
:105A5000207978280AD12146A27A70190B31FCF7F7
:105A6000CCF9A07A24684019C5B2EFE770BD704741
:105A7000153100203530002000BF70477047704757
:105A800000BF704700BF704710B5007A88214843B7
:105A900002494018FFF750FA10BD0000C82D002041
:105AA00010B5037A044998000858162203210830DB
:105AB000FFF79AF810BD0000480300208178002904
:105AC00025D01749032212028918027892109200F9
:105AD000895802789207D30EFF229A409143427868
